{
  "_format": "hh-sol-artifact-1",
  "contractName": "MyNFT",
  "sourceName": "contracts/MyNFT.sol",
  "abi": [
    {
      "inputs": [],
      "stateMutability": "nonpayable",
      "type": "constructor"
    },
    {
      "inputs": [
        {
          "internalType": "address",
          "name": "sender",
          "type": "address"
        },
        {
          "internalType": "uint256",
          "name": "tokenId",
          "type": "uint256"
        },
        {
          "internalType": "address",
          "name": "owner",
          "type": "address"
        }
      ],
      "name": "ERC721IncorrectOwner",
      "type": "error"
    },
    {
      "inputs": [
        {
          "internalType": "address",
          "name": "operator",
          "type": "address"
        },
        {
          "internalType": "uint256",
          "name": "tokenId",
          "type": "uint256"
        }
      ],
      "name": "ERC721InsufficientApproval",
      "type": "error"
    },
    {
      "inputs": [
        {
          "internalType": "address",
          "name": "approver",
          "type": "address"
        }
      ],
      "name": "ERC721InvalidApprover",
      "type": "error"
    },
    {
      "inputs": [
        {
          "internalType": "address",
          "name": "operator",
          "type": "address"
        }
      ],
      "name": "ERC721InvalidOperator",
      "type": "error"
    },
    {
      "inputs": [
        {
          "internalType": "address",
          "name": "owner",
          "type": "address"
        }
      ],
      "name": "ERC721InvalidOwner",
      "type": "error"
    },
    {
      "inputs": [
        {
          "internalType": "address",
          "name": "receiver",
          "type": "address"
        }
      ],
      "name": "ERC721InvalidReceiver",
      "type": "error"
    },
    {
      "inputs": [
        {
          "internalType": "address",
          "name": "sender",
          "type": "address"
        }
      ],
      "name": "ERC721InvalidSender",
      "type": "error"
    },
    {
      "inputs": [
        {
          "internalType": "uint256",
          "name": "tokenId",
          "type": "uint256"
        }
      ],
      "name": "ERC721NonexistentToken",
      "type": "error"
    },
    {
      "inputs": [
        {
          "internalType": "address",
          "name": "owner",
          "type": "address"
        }
      ],
      "name": "OwnableInvalidOwner",
      "type": "error"
    },
    {
      "inputs": [
        {
          "internalType": "address",
          "name": "account",
          "type": "address"
        }
      ],
      "name": "OwnableUnauthorizedAccount",
      "type": "error"
    },
    {
      "anonymous": false,
      "inputs": [
        {
          "indexed": true,
          "internalType": "address",
          "name": "owner",
          "type": "address"
        },
        {
          "indexed": true,
          "internalType": "address",
          "name": "approved",
          "type": "address"
        },
        {
          "indexed": true,
          "internalType": "uint256",
          "name": "tokenId",
          "type": "uint256"
        }
      ],
      "name": "Approval",
      "type": "event"
    },
    {
      "anonymous": false,
      "inputs": [
        {
          "indexed": true,
          "internalType": "address",
          "name": "owner",
          "type": "address"
        },
        {
          "indexed": true,
          "internalType": "address",
          "name": "operator",
          "type": "address"
        },
        {
          "indexed": false,
          "internalType": "bool",
          "name": "approved",
          "type": "bool"
        }
      ],
      "name": "ApprovalForAll",
      "type": "event"
    },
    {
      "anonymous": false,
      "inputs": [
        {
          "indexed": false,
          "internalType": "uint256",
          "name": "_fromTokenId",
          "type": "uint256"
        },
        {
          "indexed": false,
          "internalType": "uint256",
          "name": "_toTokenId",
          "type": "uint256"
        }
      ],
      "name": "BatchMetadataUpdate",
      "type": "event"
    },
    {
      "anonymous": false,
      "inputs": [
        {
          "indexed": false,
          "internalType": "uint256",
          "name": "_tokenId",
          "type": "uint256"
        }
      ],
      "name": "MetadataUpdate",
      "type": "event"
    },
    {
      "anonymous": false,
      "inputs": [
        {
          "indexed": true,
          "internalType": "address",
          "name": "previousOwner",
          "type": "address"
        },
        {
          "indexed": true,
          "internalType": "address",
          "name": "newOwner",
          "type": "address"
        }
      ],
      "name": "OwnershipTransferred",
      "type": "event"
    },
    {
      "anonymous": false,
      "inputs": [
        {
          "indexed": true,
          "internalType": "address",
          "name": "from",
          "type": "address"
        },
        {
          "indexed": true,
          "internalType": "address",
          "name": "to",
          "type": "address"
        },
        {
          "indexed": true,
          "internalType": "uint256",
          "name": "tokenId",
          "type": "uint256"
        }
      ],
      "name": "Transfer",
      "type": "event"
    },
    {
      "inputs": [],
      "name": "MAX_SUPPLY",
      "outputs": [
        {
          "internalType": "uint256",
          "name": "",
          "type": "uint256"
        }
      ],
      "stateMutability": "view",
      "type": "function"
    },
    {
      "inputs": [],
      "name": "MINT_PRICE",
      "outputs": [
        {
          "internalType": "uint256",
          "name": "",
          "type": "uint256"
        }
      ],
      "stateMutability": "view",
      "type": "function"
    },
    {
      "inputs": [
        {
          "internalType": "address",
          "name": "_user",
          "type": "address"
        }
      ],
      "name": "addToWhitelist",
      "outputs": [],
      "stateMutability": "nonpayable",
      "type": "function"
    },
    {
      "inputs": [
        {
          "internalType": "address",
          "name": "to",
          "type": "address"
        },
        {
          "internalType": "uint256",
          "name": "tokenId",
          "type": "uint256"
        }
      ],
      "name": "approve",
      "outputs": [],
      "stateMutability": "nonpayable",
      "type": "function"
    },
    {
      "inputs": [
        {
          "internalType": "address",
          "name": "owner",
          "type": "address"
        }
      ],
      "name": "balanceOf",
      "outputs": [
        {
          "internalType": "uint256",
          "name": "",
          "type": "uint256"
        }
      ],
      "stateMutability": "view",
      "type": "function"
    },
    {
      "inputs": [
        {
          "internalType": "uint256",
          "name": "tokenId",
          "type": "uint256"
        }
      ],
      "name": "getApproved",
      "outputs": [
        {
          "internalType": "address",
          "name": "",
          "type": "address"
        }
      ],
      "stateMutability": "view",
      "type": "function"
    },
    {
      "inputs": [
        {
          "internalType": "address",
          "name": "owner",
          "type": "address"
        },
        {
          "internalType": "address",
          "name": "operator",
          "type": "address"
        }
      ],
      "name": "isApprovedForAll",
      "outputs": [
        {
          "internalType": "bool",
          "name": "",
          "type": "bool"
        }
      ],
      "stateMutability": "view",
      "type": "function"
    },
    {
      "inputs": [
        {
          "internalType": "uint256",
          "name": "amount",
          "type": "uint256"
        }
      ],
      "name": "mint",
      "outputs": [],
      "stateMutability": "payable",
      "type": "function"
    },
    {
      "inputs": [],
      "name": "name",
      "outputs": [
        {
          "internalType": "string",
          "name": "",
          "type": "string"
        }
      ],
      "stateMutability": "view",
      "type": "function"
    },
    {
      "inputs": [],
      "name": "owner",
      "outputs": [
        {
          "internalType": "address",
          "name": "",
          "type": "address"
        }
      ],
      "stateMutability": "view",
      "type": "function"
    },
    {
      "inputs": [
        {
          "internalType": "uint256",
          "name": "tokenId",
          "type": "uint256"
        }
      ],
      "name": "ownerOf",
      "outputs": [
        {
          "internalType": "address",
          "name": "",
          "type": "address"
        }
      ],
      "stateMutability": "view",
      "type": "function"
    },
    {
      "inputs": [],
      "name": "publicMintOpen",
      "outputs": [
        {
          "internalType": "bool",
          "name": "",
          "type": "bool"
        }
      ],
      "stateMutability": "view",
      "type": "function"
    },
    {
      "inputs": [
        {
          "internalType": "address",
          "name": "_user",
          "type": "address"
        }
      ],
      "name": "removeFromWhitelist",
      "outputs": [],
      "stateMutability": "nonpayable",
      "type": "function"
    },
    {
      "inputs": [],
      "name": "renounceOwnership",
      "outputs": [],
      "stateMutability": "nonpayable",
      "type": "function"
    },
    {
      "inputs": [
        {
          "internalType": "address",
          "name": "from",
          "type": "address"
        },
        {
          "internalType": "address",
          "name": "to",
          "type": "address"
        },
        {
          "internalType": "uint256",
          "name": "tokenId",
          "type": "uint256"
        }
      ],
      "name": "safeTransferFrom",
      "outputs": [],
      "stateMutability": "nonpayable",
      "type": "function"
    },
    {
      "inputs": [
        {
          "internalType": "address",
          "name": "from",
          "type": "address"
        },
        {
          "internalType": "address",
          "name": "to",
          "type": "address"
        },
        {
          "internalType": "uint256",
          "name": "tokenId",
          "type": "uint256"
        },
        {
          "internalType": "bytes",
          "name": "data",
          "type": "bytes"
        }
      ],
      "name": "safeTransferFrom",
      "outputs": [],
      "stateMutability": "nonpayable",
      "type": "function"
    },
    {
      "inputs": [
        {
          "internalType": "address",
          "name": "operator",
          "type": "address"
        },
        {
          "internalType": "bool",
          "name": "approved",
          "type": "bool"
        }
      ],
      "name": "setApprovalForAll",
      "outputs": [],
      "stateMutability": "nonpayable",
      "type": "function"
    },
    {
      "inputs": [
        {
          "internalType": "bytes4",
          "name": "interfaceId",
          "type": "bytes4"
        }
      ],
      "name": "supportsInterface",
      "outputs": [
        {
          "internalType": "bool",
          "name": "",
          "type": "bool"
        }
      ],
      "stateMutability": "view",
      "type": "function"
    },
    {
      "inputs": [],
      "name": "symbol",
      "outputs": [
        {
          "internalType": "string",
          "name": "",
          "type": "string"
        }
      ],
      "stateMutability": "view",
      "type": "function"
    },
    {
      "inputs": [],
      "name": "togglePublicMint",
      "outputs": [],
      "stateMutability": "nonpayable",
      "type": "function"
    },
    {
      "inputs": [],
      "name": "toggleWhitelistMint",
      "outputs": [],
      "stateMutability": "nonpayable",
      "type": "function"
    },
    {
      "inputs": [
        {
          "internalType": "uint256",
          "name": "tokenId",
          "type": "uint256"
        }
      ],
      "name": "tokenURI",
      "outputs": [
        {
          "internalType": "string",
          "name": "",
          "type": "string"
        }
      ],
      "stateMutability": "view",
      "type": "function"
    },
    {
      "inputs": [],
      "name": "totalSupply",
      "outputs": [
        {
          "internalType": "uint256",
          "name": "",
          "type": "uint256"
        }
      ],
      "stateMutability": "view",
      "type": "function"
    },
    {
      "inputs": [
        {
          "internalType": "address",
          "name": "from",
          "type": "address"
        },
        {
          "internalType": "address",
          "name": "to",
          "type": "address"
        },
        {
          "internalType": "uint256",
          "name": "tokenId",
          "type": "uint256"
        }
      ],
      "name": "transferFrom",
      "outputs": [],
      "stateMutability": "nonpayable",
      "type": "function"
    },
    {
      "inputs": [
        {
          "internalType": "address",
          "name": "newOwner",
          "type": "address"
        }
      ],
      "name": "transferOwnership",
      "outputs": [],
      "stateMutability": "nonpayable",
      "type": "function"
    },
    {
      "inputs": [
        {
          "internalType": "address",
          "name": "",
          "type": "address"
        }
      ],
      "name": "whitelist",
      "outputs": [
        {
          "internalType": "bool",
          "name": "",
          "type": "bool"
        }
      ],
      "stateMutability": "view",
      "type": "function"
    },
    {
      "inputs": [],
      "name": "whitelistMintOpen",
      "outputs": [
        {
          "internalType": "bool",
          "name": "",
          "type": "bool"
        }
      ],
      "stateMutability": "view",
      "type": "function"
    },
    {
      "inputs": [],
      "name": "withdraw",
      "outputs": [],
      "stateMutability": "nonpayable",
      "type": "function"
    }
  ],
  "bytecode": "0x60806040526000600960006101000a81548160ff0219169083151502179055506000600960016101000a81548160ff02191690831515021790555034801561004657600080fd5b50336040518060400160405280600f81526020017f4d794e4654436f6c6c656374696f6e00000000000000000000000000000000008152506040518060400160405280600481526020017f4d4e46540000000000000000000000000000000000000000000000000000000081525081600090816100c39190610473565b5080600190816100d39190610473565b505050600073ffffffffffffffffffffffffffffffffffffffff168173ffffffffffffffffffffffffffffffffffffffff16036101485760006040517f1e4fbdf700000000000000000000000000000000000000000000000000000000815260040161013f9190610586565b60405180910390fd5b6101578161015d60201b60201c565b506105a1565b6000600760009054906101000a900473ffffffffffffffffffffffffffffffffffffffff16905081600760006101000a81548173ffffffffffffffffffffffffffffffffffffffff021916908373ffffffffffffffffffffffffffffffffffffffff1602179055508173ffffffffffffffffffffffffffffffffffffffff168173ffffffffffffffffffffffffffffffffffffffff167f8be0079c531659141344cd1fd0a4f28419497f9722a3daafe3b4186f6b6457e060405160405180910390a35050565b600081519050919050565b7f4e487b7100000000000000000000000000000000000000000000000000000000600052604160045260246000fd5b7f4e487b7100000000000000000000000000000000000000000000000000000000600052602260045260246000fd5b600060028204905060018216806102a457607f821691505b6020821081036102b7576102b661025d565b5b50919050565b60008190508160005260206000209050919050565b60006020601f8301049050919050565b600082821b905092915050565b60006008830261031f7fffffffffffffffffffffffffffffffffffffffffffffffffffffffffffffffff826102e2565b61032986836102e2565b95508019841693508086168417925050509392505050565b6000819050919050565b6000819050919050565b600061037061036b61036684610341565b61034b565b610341565b9050919050565b6000819050919050565b61038a83610355565b61039e61039682610377565b8484546102ef565b825550505050565b600090565b6103b36103a6565b6103be818484610381565b505050565b5b818110156103e2576103d76000826103ab565b6001810190506103c4565b5050565b601f821115610427576103f8816102bd565b610401846102d2565b81016020851015610410578190505b61042461041c856102d2565b8301826103c3565b50505b505050565b600082821c905092915050565b600061044a6000198460080261042c565b1980831691505092915050565b60006104638383610439565b9150826002028217905092915050565b61047c82610223565b67ffffffffffffffff8111156104955761049461022e565b5b61049f825461028c565b6104aa8282856103e6565b600060209050601f8311600181146104dd57600084156104cb578287015190505b6104d58582610457565b86555061053d565b601f1984166104eb866102bd565b60005b82811015610513578489015182556001820191506020850194506020810190506104ee565b86831015610530578489015161052c601f891682610439565b8355505b6001600288020188555050505b505050505050565b600073ffffffffffffffffffffffffffffffffffffffff82169050919050565b600061057082610545565b9050919050565b61058081610565565b82525050565b600060208201905061059b6000830184610577565b92915050565b612f31806105b06000396000f3fe6080604052600436106101b75760003560e01c8063715018a6116100ec578063b88d4fde1161008a578063c87b56dd11610064578063c87b56dd146105b3578063e43252d7146105f0578063e985e9c514610619578063f2fde38b14610656576101b7565b8063b88d4fde14610534578063bcc9ca5b1461055d578063c002d23d14610588576101b7565b806395d89b41116100c657806395d89b41146104875780639b19251a146104b2578063a0712d68146104ef578063a22cb4651461050b576101b7565b8063715018a61461041c5780638ab1d681146104335780638da5cb5b1461045c576101b7565b80633ccfd60b1161015957806352436f201161013357806352436f20146103605780636352211e1461038b5780636f63b60a146103c857806370a08231146103df576101b7565b80633ccfd60b146103095780634047638d1461032057806342842e0e14610337576101b7565b8063095ea7b311610195578063095ea7b31461026157806318160ddd1461028a57806323b872dd146102b557806332cb6b0c146102de576101b7565b806301ffc9a7146101bc57806306fdde03146101f9578063081812fc14610224575b600080fd5b3480156101c857600080fd5b506101e360048036038101906101de91906121bf565b61067f565b6040516101f09190612207565b60405180910390f35b34801561020557600080fd5b5061020e6106e0565b60405161021b91906122b2565b60405180910390f35b34801561023057600080fd5b5061024b6004803603810190610246919061230a565b610772565b6040516102589190612378565b60405180910390f35b34801561026d57600080fd5b50610288600480360381019061028391906123bf565b61078e565b005b34801561029657600080fd5b5061029f6107a4565b6040516102ac919061240e565b60405180910390f35b3480156102c157600080fd5b506102dc60048036038101906102d79190612429565b6107ae565b005b3480156102ea57600080fd5b506102f36108b0565b604051610300919061240e565b60405180910390f35b34801561031557600080fd5b5061031e6108b6565b005b34801561032c57600080fd5b5061033561090e565b005b34801561034357600080fd5b5061035e60048036038101906103599190612429565b610942565b005b34801561036c57600080fd5b50610375610962565b6040516103829190612207565b60405180910390f35b34801561039757600080fd5b506103b260048036038101906103ad919061230a565b610975565b6040516103bf9190612378565b60405180910390f35b3480156103d457600080fd5b506103dd610987565b005b3480156103eb57600080fd5b506104066004803603810190610401919061247c565b6109bb565b604051610413919061240e565b60405180910390f35b34801561042857600080fd5b50610431610a75565b005b34801561043f57600080fd5b5061045a6004803603810190610455919061247c565b610a89565b005b34801561046857600080fd5b50610471610aec565b60405161047e9190612378565b60405180910390f35b34801561049357600080fd5b5061049c610b16565b6040516104a991906122b2565b60405180910390f35b3480156104be57600080fd5b506104d960048036038101906104d4919061247c565b610ba8565b6040516104e69190612207565b60405180910390f35b6105096004803603810190610504919061230a565b610bc8565b005b34801561051757600080fd5b50610532600480360381019061052d91906124d5565b610e3b565b005b34801561054057600080fd5b5061055b6004803603810190610556919061264a565b610e51565b005b34801561056957600080fd5b50610572610e76565b60405161057f9190612207565b60405180910390f35b34801561059457600080fd5b5061059d610e89565b6040516105aa919061240e565b60405180910390f35b3480156105bf57600080fd5b506105da60048036038101906105d5919061230a565b610e94565b6040516105e791906122b2565b60405180910390f35b3480156105fc57600080fd5b506106176004803603810190610612919061247c565b610fa7565b005b34801561062557600080fd5b50610640600480360381019061063b91906126cd565b61100a565b60405161064d9190612207565b60405180910390f35b34801561066257600080fd5b5061067d6004803603810190610678919061247c565b61109e565b005b6000634906490660e01b7bffffffffffffffffffffffffffffffffffffffffffffffffffffffff1916827bffffffffffffffffffffffffffffffffffffffffffffffffffffffff191614806106d957506106d882611124565b5b9050919050565b6060600080546106ef9061273c565b80601f016020809104026020016040519081016040528092919081815260200182805461071b9061273c565b80156107685780601f1061073d57610100808354040283529160200191610768565b820191906000526020600020905b81548152906001019060200180831161074b57829003601f168201915b5050505050905090565b600061077d82611206565b506107878261128e565b9050919050565b6107a0828261079b6112cb565b6112d3565b5050565b6000600854905090565b600073ffffffffffffffffffffffffffffffffffffffff168273ffffffffffffffffffffffffffffffffffffffff16036108205760006040517f64a0ae920000000000000000000000000000000000000000000000000000000081526004016108179190612378565b60405180910390fd5b6000610834838361082f6112cb565b6112e5565b90508373ffffffffffffffffffffffffffffffffffffffff168173ffffffffffffffffffffffffffffffffffffffff16146108aa578382826040517f64283d7b0000000000000000000000000000000000000000000000000000000081526004016108a19392919061276d565b60405180910390fd5b50505050565b61138881565b6108be6114ff565b6108c6610aec565b73ffffffffffffffffffffffffffffffffffffffff166108fc479081150290604051600060405180830381858888f1935050505015801561090b573d6000803e3d6000fd5b50565b6109166114ff565b600960009054906101000a900460ff1615600960006101000a81548160ff021916908315150217905550565b61095d83838360405180602001604052806000815250610e51565b505050565b600960019054906101000a900460ff1681565b600061098082611206565b9050919050565b61098f6114ff565b600960019054906101000a900460ff1615600960016101000a81548160ff021916908315150217905550565b60008073ffffffffffffffffffffffffffffffffffffffff168273ffffffffffffffffffffffffffffffffffffffff1603610a2e5760006040517f89c62b64000000000000000000000000000000000000000000000000000000008152600401610a259190612378565b60405180910390fd5b600360008373ffffffffffffffffffffffffffffffffffffffff1673ffffffffffffffffffffffffffffffffffffffff168152602001908152602001600020549050919050565b610a7d6114ff565b610a876000611586565b565b610a916114ff565b6000600a60008373ffffffffffffffffffffffffffffffffffffffff1673ffffffffffffffffffffffffffffffffffffffff16815260200190815260200160002060006101000a81548160ff02191690831515021790555050565b6000600760009054906101000a900473ffffffffffffffffffffffffffffffffffffffff16905090565b606060018054610b259061273c565b80601f0160208091040260200160405190810160405280929190818152602001828054610b519061273c565b8015610b9e5780601f10610b7357610100808354040283529160200191610b9e565b820191906000526020600020905b815481529060010190602001808311610b8157829003601f168201915b5050505050905090565b600a6020528060005260406000206000915054906101000a900460ff1681565b600960009054906101000a900460ff1680610bef5750600960019054906101000a900460ff165b610c2e576040517f08c379a0000000000000000000000000000000000000000000000000000000008152600401610c25906127f0565b60405180910390fd5b60008111610c71576040517f08c379a0000000000000000000000000000000000000000000000000000000008152600401610c689061285c565b60405180910390fd5b80662386f26fc10000610c8491906128ab565b341015610cc6576040517f08c379a0000000000000000000000000000000000000000000000000000000008152600401610cbd90612939565b60405180910390fd5b61138881600854610cd79190612959565b1115610d18576040517f08c379a0000000000000000000000000000000000000000000000000000000008152600401610d0f906129d9565b60405180910390fd5b600960019054906101000a900460ff168015610d415750600960009054906101000a900460ff16155b15610dd357600a60003373ffffffffffffffffffffffffffffffffffffffff1673ffffffffffffffffffffffffffffffffffffffff16815260200190815260200160002060009054906101000a900460ff16610dd2576040517f08c379a0000000000000000000000000000000000000000000000000000000008152600401610dc990612a45565b60405180910390fd5b5b60005b81811015610e375760086000815480929190610df190612a65565b919050555060006008549050610e07338261164c565b610e2981604051806060016040528060358152602001612ec760359139611745565b508080600101915050610dd6565b5050565b610e4d610e466112cb565b83836117a1565b5050565b610e5c8484846107ae565b610e70610e676112cb565b85858585611910565b50505050565b600960009054906101000a900460ff1681565b662386f26fc1000081565b6060610e9f82611206565b506000600660008481526020019081526020016000208054610ec09061273c565b80601f0160208091040260200160405190810160405280929190818152602001828054610eec9061273c565b8015610f395780601f10610f0e57610100808354040283529160200191610f39565b820191906000526020600020905b815481529060010190602001808311610f1c57829003601f168201915b505050505090506000610f4a611ac1565b90506000815103610f5f578192505050610fa2565b600082511115610f94578082604051602001610f7c929190612ae9565b60405160208183030381529060405292505050610fa2565b610f9d84611ad8565b925050505b919050565b610faf6114ff565b6001600a60008373ffffffffffffffffffffffffffffffffffffffff1673ffffffffffffffffffffffffffffffffffffffff16815260200190815260200160002060006101000a81548160ff02191690831515021790555050565b6000600560008473ffffffffffffffffffffffffffffffffffffffff1673ffffffffffffffffffffffffffffffffffffffff16815260200190815260200160002060008373ffffffffffffffffffffffffffffffffffffffff1673ffffffffffffffffffffffffffffffffffffffff16815260200190815260200160002060009054906101000a900460ff16905092915050565b6110a66114ff565b600073ffffffffffffffffffffffffffffffffffffffff168173ffffffffffffffffffffffffffffffffffffffff16036111185760006040517f1e4fbdf700000000000000000000000000000000000000000000000000000000815260040161110f9190612378565b60405180910390fd5b61112181611586565b50565b60007f80ac58cd000000000000000000000000000000000000000000000000000000007bffffffffffffffffffffffffffffffffffffffffffffffffffffffff1916827bffffffffffffffffffffffffffffffffffffffffffffffffffffffff191614806111ef57507f5b5e139f000000000000000000000000000000000000000000000000000000007bffffffffffffffffffffffffffffffffffffffffffffffffffffffff1916827bffffffffffffffffffffffffffffffffffffffffffffffffffffffff1916145b806111ff57506111fe82611b41565b5b9050919050565b60008061121283611bab565b9050600073ffffffffffffffffffffffffffffffffffffffff168173ffffffffffffffffffffffffffffffffffffffff160361128557826040517f7e27328900000000000000000000000000000000000000000000000000000000815260040161127c919061240e565b60405180910390fd5b80915050919050565b60006004600083815260200190815260200160002060009054906101000a900473ffffffffffffffffffffffffffffffffffffffff169050919050565b600033905090565b6112e08383836001611be8565b505050565b6000806112f184611bab565b9050600073ffffffffffffffffffffffffffffffffffffffff168373ffffffffffffffffffffffffffffffffffffffff161461133357611332818486611dad565b5b600073ffffffffffffffffffffffffffffffffffffffff168173ffffffffffffffffffffffffffffffffffffffff16146113c457611375600085600080611be8565b6001600360008373ffffffffffffffffffffffffffffffffffffffff1673ffffffffffffffffffffffffffffffffffffffff168152602001908152602001600020600082825403925050819055505b600073ffffffffffffffffffffffffffffffffffffffff168573ffffffffffffffffffffffffffffffffffffffff1614611447576001600360008773ffffffffffffffffffffffffffffffffffffffff1673ffffffffffffffffffffffffffffffffffffffff168152602001908152602001600020600082825401925050819055505b846002600086815260200190815260200160002060006101000a81548173ffffffffffffffffffffffffffffffffffffffff021916908373ffffffffffffffffffffffffffffffffffffffff160217905550838573ffffffffffffffffffffffffffffffffffffffff168273ffffffffffffffffffffffffffffffffffffffff167fddf252ad1be2c89b69c2b068fc378daa952ba7f163c4a11628f55a4df523b3ef60405160405180910390a4809150509392505050565b6115076112cb565b73ffffffffffffffffffffffffffffffffffffffff16611525610aec565b73ffffffffffffffffffffffffffffffffffffffff1614611584576115486112cb565b6040517f118cdaa700000000000000000000000000000000000000000000000000000000815260040161157b9190612378565b60405180910390fd5b565b6000600760009054906101000a900473ffffffffffffffffffffffffffffffffffffffff16905081600760006101000a81548173ffffffffffffffffffffffffffffffffffffffff021916908373ffffffffffffffffffffffffffffffffffffffff1602179055508173ffffffffffffffffffffffffffffffffffffffff168173ffffffffffffffffffffffffffffffffffffffff167f8be0079c531659141344cd1fd0a4f28419497f9722a3daafe3b4186f6b6457e060405160405180910390a35050565b600073ffffffffffffffffffffffffffffffffffffffff168273ffffffffffffffffffffffffffffffffffffffff16036116be5760006040517f64a0ae920000000000000000000000000000000000000000000000000000000081526004016116b59190612378565b60405180910390fd5b60006116cc838360006112e5565b9050600073ffffffffffffffffffffffffffffffffffffffff168173ffffffffffffffffffffffffffffffffffffffff16146117405760006040517f73c6ac6e0000000000000000000000000000000000000000000000000000000081526004016117379190612378565b60405180910390fd5b505050565b806006600084815260200190815260200160002090816117659190612cb9565b507ff8e1a15aba9398e019f0b49df1a4fde98ee17ae345cb5f6b5e2c27f5033e8ce782604051611795919061240e565b60405180910390a15050565b600073ffffffffffffffffffffffffffffffffffffffff168273ffffffffffffffffffffffffffffffffffffffff160361181257816040517f5b08ba180000000000000000000000000000000000000000000000000000000081526004016118099190612378565b60405180910390fd5b80600560008573ffffffffffffffffffffffffffffffffffffffff1673ffffffffffffffffffffffffffffffffffffffff16815260200190815260200160002060008473ffffffffffffffffffffffffffffffffffffffff1673ffffffffffffffffffffffffffffffffffffffff16815260200190815260200160002060006101000a81548160ff0219169083151502179055508173ffffffffffffffffffffffffffffffffffffffff168373ffffffffffffffffffffffffffffffffffffffff167f17307eab39ab6107e8899845ad3d59bd9653f200f220920489ca2b5937696c31836040516119039190612207565b60405180910390a3505050565b60008373ffffffffffffffffffffffffffffffffffffffff163b1115611aba578273ffffffffffffffffffffffffffffffffffffffff1663150b7a02868685856040518563ffffffff1660e01b815260040161196f9493929190612de0565b6020604051808303816000875af19250505080156119ab57506040513d601f19601f820116820180604052508101906119a89190612e41565b60015b611a2f573d80600081146119db576040519150601f19603f3d011682016040523d82523d6000602084013e6119e0565b606091505b506000815103611a2757836040517f64a0ae92000000000000000000000000000000000000000000000000000000008152600401611a1e9190612378565b60405180910390fd5b805160208201fd5b63150b7a0260e01b7bffffffffffffffffffffffffffffffffffffffffffffffffffffffff1916817bffffffffffffffffffffffffffffffffffffffffffffffffffffffff191614611ab857836040517f64a0ae92000000000000000000000000000000000000000000000000000000008152600401611aaf9190612378565b60405180910390fd5b505b5050505050565b606060405180602001604052806000815250905090565b6060611ae382611206565b506000611aee611ac1565b90506000815111611b0e5760405180602001604052806000815250611b39565b80611b1884611e71565b604051602001611b29929190612ae9565b6040516020818303038152906040525b915050919050565b60007f01ffc9a7000000000000000000000000000000000000000000000000000000007bffffffffffffffffffffffffffffffffffffffffffffffffffffffff1916827bffffffffffffffffffffffffffffffffffffffffffffffffffffffff1916149050919050565b60006002600083815260200190815260200160002060009054906101000a900473ffffffffffffffffffffffffffffffffffffffff169050919050565b8080611c215750600073ffffffffffffffffffffffffffffffffffffffff168273ffffffffffffffffffffffffffffffffffffffff1614155b15611d55576000611c3184611206565b9050600073ffffffffffffffffffffffffffffffffffffffff168373ffffffffffffffffffffffffffffffffffffffff1614158015611c9c57508273ffffffffffffffffffffffffffffffffffffffff168173ffffffffffffffffffffffffffffffffffffffff1614155b8015611caf5750611cad818461100a565b155b15611cf157826040517fa9fbf51f000000000000000000000000000000000000000000000000000000008152600401611ce89190612378565b60405180910390fd5b8115611d5357838573ffffffffffffffffffffffffffffffffffffffff168273ffffffffffffffffffffffffffffffffffffffff167f8c5be1e5ebec7d5bd14f71427d1e84f3dd0314c0f7b2291e5b200ac8c7c3b92560405160405180910390a45b505b836004600085815260200190815260200160002060006101000a81548173ffffffffffffffffffffffffffffffffffffffff021916908373ffffffffffffffffffffffffffffffffffffffff16021790555050505050565b611db8838383611f3f565b611e6c57600073ffffffffffffffffffffffffffffffffffffffff168373ffffffffffffffffffffffffffffffffffffffff1603611e2d57806040517f7e273289000000000000000000000000000000000000000000000000000000008152600401611e24919061240e565b60405180910390fd5b81816040517f177e802f000000000000000000000000000000000000000000000000000000008152600401611e63929190612e6e565b60405180910390fd5b505050565b606060006001611e8084612000565b01905060008167ffffffffffffffff811115611e9f57611e9e61251f565b5b6040519080825280601f01601f191660200182016040528015611ed15781602001600182028036833780820191505090505b509050600082602083010190505b600115611f34578080600190039150507f3031323334353637383961626364656600000000000000000000000000000000600a86061a8153600a8581611f2857611f27612e97565b5b04945060008503611edf575b819350505050919050565b60008073ffffffffffffffffffffffffffffffffffffffff168373ffffffffffffffffffffffffffffffffffffffff1614158015611ff757508273ffffffffffffffffffffffffffffffffffffffff168473ffffffffffffffffffffffffffffffffffffffff161480611fb85750611fb7848461100a565b5b80611ff657508273ffffffffffffffffffffffffffffffffffffffff16611fde8361128e565b73ffffffffffffffffffffffffffffffffffffffff16145b5b90509392505050565b600080600090507a184f03e93ff9f4daa797ed6e38ed64bf6a1f010000000000000000831061205e577a184f03e93ff9f4daa797ed6e38ed64bf6a1f010000000000000000838161205457612053612e97565b5b0492506040810190505b6d04ee2d6d415b85acef8100000000831061209b576d04ee2d6d415b85acef8100000000838161209157612090612e97565b5b0492506020810190505b662386f26fc1000083106120ca57662386f26fc1000083816120c0576120bf612e97565b5b0492506010810190505b6305f5e10083106120f3576305f5e10083816120e9576120e8612e97565b5b0492506008810190505b612710831061211857612710838161210e5761210d612e97565b5b0492506004810190505b6064831061213b576064838161213157612130612e97565b5b0492506002810190505b600a831061214a576001810190505b80915050919050565b6000604051905090565b600080fd5b600080fd5b60007fffffffff0000000000000000000000000000000000000000000000000000000082169050919050565b61219c81612167565b81146121a757600080fd5b50565b6000813590506121b981612193565b92915050565b6000602082840312156121d5576121d461215d565b5b60006121e3848285016121aa565b91505092915050565b60008115159050919050565b612201816121ec565b82525050565b600060208201905061221c60008301846121f8565b92915050565b600081519050919050565b600082825260208201905092915050565b60005b8381101561225c578082015181840152602081019050612241565b60008484015250505050565b6000601f19601f8301169050919050565b600061228482612222565b61228e818561222d565b935061229e81856020860161223e565b6122a781612268565b840191505092915050565b600060208201905081810360008301526122cc8184612279565b905092915050565b6000819050919050565b6122e7816122d4565b81146122f257600080fd5b50565b600081359050612304816122de565b92915050565b6000602082840312156123205761231f61215d565b5b600061232e848285016122f5565b91505092915050565b600073ffffffffffffffffffffffffffffffffffffffff82169050919050565b600061236282612337565b9050919050565b61237281612357565b82525050565b600060208201905061238d6000830184612369565b92915050565b61239c81612357565b81146123a757600080fd5b50565b6000813590506123b981612393565b92915050565b600080604083850312156123d6576123d561215d565b5b60006123e4858286016123aa565b92505060206123f5858286016122f5565b9150509250929050565b612408816122d4565b82525050565b600060208201905061242360008301846123ff565b92915050565b6000806000606084860312156124425761244161215d565b5b6000612450868287016123aa565b9350506020612461868287016123aa565b9250506040612472868287016122f5565b9150509250925092565b6000602082840312156124925761249161215d565b5b60006124a0848285016123aa565b91505092915050565b6124b2816121ec565b81146124bd57600080fd5b50565b6000813590506124cf816124a9565b92915050565b600080604083850312156124ec576124eb61215d565b5b60006124fa858286016123aa565b925050602061250b858286016124c0565b9150509250929050565b600080fd5b600080fd5b7f4e487b7100000000000000000000000000000000000000000000000000000000600052604160045260246000fd5b61255782612268565b810181811067ffffffffffffffff821117156125765761257561251f565b5b80604052505050565b6000612589612153565b9050612595828261254e565b919050565b600067ffffffffffffffff8211156125b5576125b461251f565b5b6125be82612268565b9050602081019050919050565b82818337600083830152505050565b60006125ed6125e88461259a565b61257f565b9050828152602081018484840111156126095761260861251a565b5b6126148482856125cb565b509392505050565b600082601f83011261263157612630612515565b5b81356126418482602086016125da565b91505092915050565b600080600080608085870312156126645761266361215d565b5b6000612672878288016123aa565b9450506020612683878288016123aa565b9350506040612694878288016122f5565b925050606085013567ffffffffffffffff8111156126b5576126b4612162565b5b6126c18782880161261c565b91505092959194509250565b600080604083850312156126e4576126e361215d565b5b60006126f2858286016123aa565b9250506020612703858286016123aa565b9150509250929050565b7f4e487b7100000000000000000000000000000000000000000000000000000000600052602260045260246000fd5b6000600282049050600182168061275457607f821691505b6020821081036127675761276661270d565b5b50919050565b60006060820190506127826000830186612369565b61278f60208301856123ff565b61279c6040830184612369565b949350505050565b7f4d696e7420697320636c6f736564000000000000000000000000000000000000600082015250565b60006127da600e8361222d565b91506127e5826127a4565b602082019050919050565b60006020820190508181036000830152612809816127cd565b9050919050565b7f4d696e74206174206c656173742031204e465400000000000000000000000000600082015250565b600061284660138361222d565b915061285182612810565b602082019050919050565b6000602082019050818103600083015261287581612839565b9050919050565b7f4e487b7100000000000000000000000000000000000000000000000000000000600052601160045260246000fd5b60006128b6826122d4565b91506128c1836122d4565b92508282026128cf816122d4565b915082820484148315176128e6576128e561287c565b5b5092915050565b7f4e6f7420656e6f756768204554482073656e7400000000000000000000000000600082015250565b600061292360138361222d565b915061292e826128ed565b602082019050919050565b6000602082019050818103600083015261295281612916565b9050919050565b6000612964826122d4565b915061296f836122d4565b92508282019050808211156129875761298661287c565b5b92915050565b7f45786365656473206d617820737570706c790000000000000000000000000000600082015250565b60006129c360128361222d565b91506129ce8261298d565b602082019050919050565b600060208201905081810360008301526129f2816129b6565b9050919050565b7f4e6f742077686974656c69737465640000000000000000000000000000000000600082015250565b6000612a2f600f8361222d565b9150612a3a826129f9565b602082019050919050565b60006020820190508181036000830152612a5e81612a22565b9050919050565b6000612a70826122d4565b91507fffffffffffffffffffffffffffffffffffffffffffffffffffffffffffffffff8203612aa257612aa161287c565b5b600182019050919050565b600081905092915050565b6000612ac382612222565b612acd8185612aad565b9350612add81856020860161223e565b80840191505092915050565b6000612af58285612ab8565b9150612b018284612ab8565b91508190509392505050565b60008190508160005260206000209050919050565b60006020601f8301049050919050565b600082821b905092915050565b600060088302612b6f7fffffffffffffffffffffffffffffffffffffffffffffffffffffffffffffffff82612b32565b612b798683612b32565b95508019841693508086168417925050509392505050565b6000819050919050565b6000612bb6612bb1612bac846122d4565b612b91565b6122d4565b9050919050565b6000819050919050565b612bd083612b9b565b612be4612bdc82612bbd565b848454612b3f565b825550505050565b600090565b612bf9612bec565b612c04818484612bc7565b505050565b5b81811015612c2857612c1d600082612bf1565b600181019050612c0a565b5050565b601f821115612c6d57612c3e81612b0d565b612c4784612b22565b81016020851015612c56578190505b612c6a612c6285612b22565b830182612c09565b50505b505050565b600082821c905092915050565b6000612c9060001984600802612c72565b1980831691505092915050565b6000612ca98383612c7f565b9150826002028217905092915050565b612cc282612222565b67ffffffffffffffff811115612cdb57612cda61251f565b5b612ce5825461273c565b612cf0828285612c2c565b600060209050601f831160018114612d235760008415612d11578287015190505b612d1b8582612c9d565b865550612d83565b601f198416612d3186612b0d565b60005b82811015612d5957848901518255600182019150602085019450602081019050612d34565b86831015612d765784890151612d72601f891682612c7f565b8355505b6001600288020188555050505b505050505050565b600081519050919050565b600082825260208201905092915050565b6000612db282612d8b565b612dbc8185612d96565b9350612dcc81856020860161223e565b612dd581612268565b840191505092915050565b6000608082019050612df56000830187612369565b612e026020830186612369565b612e0f60408301856123ff565b8181036060830152612e218184612da7565b905095945050505050565b600081519050612e3b81612193565b92915050565b600060208284031215612e5757612e5661215d565b5b6000612e6584828501612e2c565b91505092915050565b6000604082019050612e836000830185612369565b612e9060208301846123ff565b9392505050565b7f4e487b7100000000000000000000000000000000000000000000000000000000600052601260045260246000fdfe697066733a2f2f516d5a714d594e527135566e4235486f38336a53776a63414764346b645858514e534a31596a787756664d61764aa26469706673582212209b46f41fce5dcaff1e348f7e1483cdaf9bc59011d7a00958e1906ecb4314e13464736f6c634300081c0033",
  "linkReferences": {},
  "deployedLinkReferences": {}
}